{
  "contractName": "ERC721",
  "abi": [
    {
      "constant": true,
      "inputs": [
        {
          "name": "interfaceId",
          "type": "bytes4"
        }
      ],
      "name": "supportsInterface",
      "outputs": [
        {
          "name": "",
          "type": "bool"
        }
      ],
      "payable": false,
      "stateMutability": "view",
      "type": "function"
    },
    {
      "inputs": [],
      "payable": false,
      "stateMutability": "nonpayable",
      "type": "constructor"
    },
    {
      "anonymous": false,
      "inputs": [
        {
          "indexed": true,
          "name": "from",
          "type": "address"
        },
        {
          "indexed": true,
          "name": "to",
          "type": "address"
        },
        {
          "indexed": true,
          "name": "tokenId",
          "type": "uint256"
        }
      ],
      "name": "Transfer",
      "type": "event"
    },
    {
      "anonymous": false,
      "inputs": [
        {
          "indexed": true,
          "name": "owner",
          "type": "address"
        },
        {
          "indexed": true,
          "name": "approved",
          "type": "address"
        },
        {
          "indexed": true,
          "name": "tokenId",
          "type": "uint256"
        }
      ],
      "name": "Approval",
      "type": "event"
    },
    {
      "anonymous": false,
      "inputs": [
        {
          "indexed": true,
          "name": "owner",
          "type": "address"
        },
        {
          "indexed": true,
          "name": "operator",
          "type": "address"
        },
        {
          "indexed": false,
          "name": "approved",
          "type": "bool"
        }
      ],
      "name": "ApprovalForAll",
      "type": "event"
    },
    {
      "constant": true,
      "inputs": [
        {
          "name": "owner",
          "type": "address"
        }
      ],
      "name": "balanceOf",
      "outputs": [
        {
          "name": "",
          "type": "uint256"
        }
      ],
      "payable": false,
      "stateMutability": "view",
      "type": "function"
    },
    {
      "constant": true,
      "inputs": [
        {
          "name": "tokenId",
          "type": "uint256"
        }
      ],
      "name": "ownerOf",
      "outputs": [
        {
          "name": "",
          "type": "address"
        }
      ],
      "payable": false,
      "stateMutability": "view",
      "type": "function"
    },
    {
      "constant": false,
      "inputs": [
        {
          "name": "to",
          "type": "address"
        },
        {
          "name": "tokenId",
          "type": "uint256"
        }
      ],
      "name": "approve",
      "outputs": [],
      "payable": false,
      "stateMutability": "nonpayable",
      "type": "function"
    },
    {
      "constant": true,
      "inputs": [
        {
          "name": "tokenId",
          "type": "uint256"
        }
      ],
      "name": "getApproved",
      "outputs": [
        {
          "name": "",
          "type": "address"
        }
      ],
      "payable": false,
      "stateMutability": "view",
      "type": "function"
    },
    {
      "constant": false,
      "inputs": [
        {
          "name": "to",
          "type": "address"
        },
        {
          "name": "approved",
          "type": "bool"
        }
      ],
      "name": "setApprovalForAll",
      "outputs": [],
      "payable": false,
      "stateMutability": "nonpayable",
      "type": "function"
    },
    {
      "constant": true,
      "inputs": [
        {
          "name": "owner",
          "type": "address"
        },
        {
          "name": "operator",
          "type": "address"
        }
      ],
      "name": "isApprovedForAll",
      "outputs": [
        {
          "name": "",
          "type": "bool"
        }
      ],
      "payable": false,
      "stateMutability": "view",
      "type": "function"
    },
    {
      "constant": false,
      "inputs": [
        {
          "name": "from",
          "type": "address"
        },
        {
          "name": "to",
          "type": "address"
        },
        {
          "name": "tokenId",
          "type": "uint256"
        }
      ],
      "name": "transferFrom",
      "outputs": [],
      "payable": false,
      "stateMutability": "nonpayable",
      "type": "function"
    },
    {
      "constant": false,
      "inputs": [
        {
          "name": "from",
          "type": "address"
        },
        {
          "name": "to",
          "type": "address"
        },
        {
          "name": "tokenId",
          "type": "uint256"
        }
      ],
      "name": "safeTransferFrom",
      "outputs": [],
      "payable": false,
      "stateMutability": "nonpayable",
      "type": "function"
    },
    {
      "constant": false,
      "inputs": [
        {
          "name": "from",
          "type": "address"
        },
        {
          "name": "to",
          "type": "address"
        },
        {
          "name": "tokenId",
          "type": "uint256"
        },
        {
          "name": "_data",
          "type": "bytes"
        }
      ],
      "name": "safeTransferFrom",
      "outputs": [],
      "payable": false,
      "stateMutability": "nonpayable",
      "type": "function"
    },
    {
      "constant": false,
      "inputs": [
        {
          "name": "to",
          "type": "address"
        },
        {
          "name": "tokenId",
          "type": "uint256"
        }
      ],
      "name": "_mint",
      "outputs": [],
      "payable": false,
      "stateMutability": "nonpayable",
      "type": "function"
    }
  ],
  "bytecode": "0x608060405234801561001057600080fd5b5061004c6301ffc9a77c01000000000000000000000000000000000000000000000000000000000261008c640100000000026401000000009004565b6100876380ac58cd7c01000000000000000000000000000000000000000000000000000000000261008c640100000000026401000000009004565b610149565b63ffffffff7c010000000000000000000000000000000000000000000000000000000002817bffffffffffffffffffffffffffffffffffffffffffffffffffffffff1916141515156100dd57600080fd5b6001600080837bffffffffffffffffffffffffffffffffffffffffffffffffffffffff19167bffffffffffffffffffffffffffffffffffffffffffffffffffffffff1916815260200190815260200160002060006101000a81548160ff02191690831515021790555050565b6112fd806101586000396000f3006080604052600436106100af576000357c0100000000000000000000000000000000000000000000000000000000900463ffffffff16806301ffc9a7146100b4578063081812fc14610118578063095ea7b31461018557806323b872dd146101d257806342842e0e1461023f5780634e6ec247146102ac5780636352211e146102f957806370a0823114610366578063a22cb465146103bd578063b88d4fde1461040c578063e985e9c5146104bf575b600080fd5b3480156100c057600080fd5b506100fe60048036038101908080357bffffffffffffffffffffffffffffffffffffffffffffffffffffffff1916906020019092919050505061053a565b604051808215151515815260200191505060405180910390f35b34801561012457600080fd5b50610143600480360381019080803590602001909291905050506105a1565b604051808273ffffffffffffffffffffffffffffffffffffffff1673ffffffffffffffffffffffffffffffffffffffff16815260200191505060405180910390f35b34801561019157600080fd5b506101d0600480360381019080803573ffffffffffffffffffffffffffffffffffffffff169060200190929190803590602001909291905050506105f2565b005b3480156101de57600080fd5b5061023d600480360381019080803573ffffffffffffffffffffffffffffffffffffffff169060200190929190803573ffffffffffffffffffffffffffffffffffffffff16906020019092919080359060200190929190505050610737565b005b34801561024b57600080fd5b506102aa600480360381019080803573ffffffffffffffffffffffffffffffffffffffff169060200190929190803573ffffffffffffffffffffffffffffffffffffffff16906020019092919080359060200190929190505050610806565b005b3480156102b857600080fd5b506102f7600480360381019080803573ffffffffffffffffffffffffffffffffffffffff16906020019092919080359060200190929190505050610827565b005b34801561030557600080fd5b50610324600480360381019080803590602001909291905050506108cd565b604051808273ffffffffffffffffffffffffffffffffffffffff1673ffffffffffffffffffffffffffffffffffffffff16815260200191505060405180910390f35b34801561037257600080fd5b506103a7600480360381019080803573ffffffffffffffffffffffffffffffffffffffff16906020019092919050505061094b565b6040518082815260200191505060405180910390f35b3480156103c957600080fd5b5061040a600480360381019080803573ffffffffffffffffffffffffffffffffffffffff1690602001909291908035151590602001909291905050506109cf565b005b34801561041857600080fd5b506104bd600480360381019080803573ffffffffffffffffffffffffffffffffffffffff169060200190929190803573ffffffffffffffffffffffffffffffffffffffff16906020019092919080359060200190929190803590602001908201803590602001908080601f0160208091040260200160405190810160405280939291908181526020018383808284378201915050505050509192919290505050610b0b565b005b3480156104cb57600080fd5b50610520600480360381019080803573ffffffffffffffffffffffffffffffffffffffff169060200190929190803573ffffffffffffffffffffffffffffffffffffffff169060200190929190505050610b33565b604051808215151515815260200191505060405180910390f35b6000806000837bffffffffffffffffffffffffffffffffffffffffffffffffffffffff19167bffffffffffffffffffffffffffffffffffffffffffffffffffffffff1916815260200190815260200160002060009054906101000a900460ff169050919050565b60006105ac82610bc7565b15156105b757600080fd5b6002600083815260200190815260200160002060009054906101000a900473ffffffffffffffffffffffffffffffffffffffff169050919050565b60006105fd826108cd565b90508073ffffffffffffffffffffffffffffffffffffffff168373ffffffffffffffffffffffffffffffffffffffff161415151561063a57600080fd5b8073ffffffffffffffffffffffffffffffffffffffff163373ffffffffffffffffffffffffffffffffffffffff16148061067a57506106798133610b33565b5b151561068557600080fd5b826002600084815260200190815260200160002060006101000a81548173ffffffffffffffffffffffffffffffffffffffff021916908373ffffffffffffffffffffffffffffffffffffffff160217905550818373ffffffffffffffffffffffffffffffffffffffff168273ffffffffffffffffffffffffffffffffffffffff167f8c5be1e5ebec7d5bd14f71427d1e84f3dd0314c0f7b2291e5b200ac8c7c3b92560405160405180910390a4505050565b6107413382610c39565b151561074c57600080fd5b600073ffffffffffffffffffffffffffffffffffffffff168273ffffffffffffffffffffffffffffffffffffffff161415151561078857600080fd5b6107928382610cce565b61079c8382610dd1565b6107a68282610f00565b808273ffffffffffffffffffffffffffffffffffffffff168473ffffffffffffffffffffffffffffffffffffffff167fddf252ad1be2c89b69c2b068fc378daa952ba7f163c4a11628f55a4df523b3ef60405160405180910390a4505050565b6108228383836020604051908101604052806000815250610b0b565b505050565b600073ffffffffffffffffffffffffffffffffffffffff168273ffffffffffffffffffffffffffffffffffffffff161415151561086357600080fd5b61086d8282610f00565b808273ffffffffffffffffffffffffffffffffffffffff16600073ffffffffffffffffffffffffffffffffffffffff167fddf252ad1be2c89b69c2b068fc378daa952ba7f163c4a11628f55a4df523b3ef60405160405180910390a45050565b6000806001600084815260200190815260200160002060009054906101000a900473ffffffffffffffffffffffffffffffffffffffff169050600073ffffffffffffffffffffffffffffffffffffffff168173ffffffffffffffffffffffffffffffffffffffff161415151561094257600080fd5b80915050919050565b60008073ffffffffffffffffffffffffffffffffffffffff168273ffffffffffffffffffffffffffffffffffffffff161415151561098857600080fd5b600360008373ffffffffffffffffffffffffffffffffffffffff1673ffffffffffffffffffffffffffffffffffffffff168152602001908152602001600020549050919050565b3373ffffffffffffffffffffffffffffffffffffffff168273ffffffffffffffffffffffffffffffffffffffff1614151515610a0a57600080fd5b80600460003373ffffffffffffffffffffffffffffffffffffffff1673ffffffffffffffffffffffffffffffffffffffff16815260200190815260200160002060008473ffffffffffffffffffffffffffffffffffffffff1673ffffffffffffffffffffffffffffffffffffffff16815260200190815260200160002060006101000a81548160ff0219169083151502179055508173ffffffffffffffffffffffffffffffffffffffff163373ffffffffffffffffffffffffffffffffffffffff167f17307eab39ab6107e8899845ad3d59bd9653f200f220920489ca2b5937696c3183604051808215151515815260200191505060405180910390a35050565b610b16848484610737565b610b228484848461105a565b1515610b2d57600080fd5b50505050565b6000600460008473ffffffffffffffffffffffffffffffffffffffff1673ffffffffffffffffffffffffffffffffffffffff16815260200190815260200160002060008373ffffffffffffffffffffffffffffffffffffffff1673ffffffffffffffffffffffffffffffffffffffff16815260200190815260200160002060009054906101000a900460ff16905092915050565b6000806001600084815260200190815260200160002060009054906101000a900473ffffffffffffffffffffffffffffffffffffffff169050600073ffffffffffffffffffffffffffffffffffffffff168173ffffffffffffffffffffffffffffffffffffffff161415915050919050565b600080610c45836108cd565b90508073ffffffffffffffffffffffffffffffffffffffff168473ffffffffffffffffffffffffffffffffffffffff161480610cb457508373ffffffffffffffffffffffffffffffffffffffff16610c9c846105a1565b73ffffffffffffffffffffffffffffffffffffffff16145b80610cc55750610cc48185610b33565b5b91505092915050565b8173ffffffffffffffffffffffffffffffffffffffff16610cee826108cd565b73ffffffffffffffffffffffffffffffffffffffff16141515610d1057600080fd5b600073ffffffffffffffffffffffffffffffffffffffff166002600083815260200190815260200160002060009054906101000a900473ffffffffffffffffffffffffffffffffffffffff1673ffffffffffffffffffffffffffffffffffffffff16141515610dcd5760006002600083815260200190815260200160002060006101000a81548173ffffffffffffffffffffffffffffffffffffffff021916908373ffffffffffffffffffffffffffffffffffffffff1602179055505b5050565b8173ffffffffffffffffffffffffffffffffffffffff16610df1826108cd565b73ffffffffffffffffffffffffffffffffffffffff16141515610e1357600080fd5b610e666001600360008573ffffffffffffffffffffffffffffffffffffffff1673ffffffffffffffffffffffffffffffffffffffff1681526020019081526020016000205461127c90919063ffffffff16565b600360008473ffffffffffffffffffffffffffffffffffffffff1673ffffffffffffffffffffffffffffffffffffffff1681526020019081526020016000208190555060006001600083815260200190815260200160002060006101000a81548173ffffffffffffffffffffffffffffffffffffffff021916908373ffffffffffffffffffffffffffffffffffffffff1602179055505050565b600073ffffffffffffffffffffffffffffffffffffffff166001600083815260200190815260200160002060009054906101000a900473ffffffffffffffffffffffffffffffffffffffff1673ffffffffffffffffffffffffffffffffffffffff16141515610f6e57600080fd5b816001600083815260200190815260200160002060006101000a81548173ffffffffffffffffffffffffffffffffffffffff021916908373ffffffffffffffffffffffffffffffffffffffff1602179055506110136001600360008573ffffffffffffffffffffffffffffffffffffffff1673ffffffffffffffffffffffffffffffffffffffff1681526020019081526020016000205461129d90919063ffffffff16565b600360008473ffffffffffffffffffffffffffffffffffffffff1673ffffffffffffffffffffffffffffffffffffffff168152602001908152602001600020819055505050565b60008061107c8573ffffffffffffffffffffffffffffffffffffffff166112be565b151561108b5760019150611273565b8473ffffffffffffffffffffffffffffffffffffffff1663150b7a02338887876040518563ffffffff167c0100000000000000000000000000000000000000000000000000000000028152600401808573ffffffffffffffffffffffffffffffffffffffff1673ffffffffffffffffffffffffffffffffffffffff1681526020018473ffffffffffffffffffffffffffffffffffffffff1673ffffffffffffffffffffffffffffffffffffffff16815260200183815260200180602001828103825283818151815260200191508051906020019080838360005b83811015611180578082015181840152602081019050611165565b50505050905090810190601f1680156111ad5780820380516001836020036101000a031916815260200191505b5095505050505050602060405180830381600087803b1580156111cf57600080fd5b505af11580156111e3573d6000803e3d6000fd5b505050506040513d60208110156111f957600080fd5b8101908080519060200190929190505050905063150b7a027c0100000000000000000000000000000000000000000000000000000000027bffffffffffffffffffffffffffffffffffffffffffffffffffffffff1916817bffffffffffffffffffffffffffffffffffffffffffffffffffffffff19161491505b50949350505050565b60008083831115151561128e57600080fd5b82840390508091505092915050565b60008082840190508381101515156112b457600080fd5b8091505092915050565b600080823b9050600081119150509190505600a165627a7a723058202fd0c1010354bbfdd25f49f058001fc8ff8b7c14f49243a0b72b48b0d1960f260029",
  "source": "pragma solidity ^0.4.24;\n\nimport \"./IERC721.sol\";\nimport \"./IERC721Receiver.sol\";\nimport \"../../math/SafeMath.sol\";\nimport \"../../utils/Address.sol\";\nimport \"../../introspection/ERC165.sol\";\n\n\n/**\n * @title ERC721 Non-Fungible Token Standard basic implementation\n * @dev see https://github.com/ethereum/EIPs/blob/master/EIPS/eip-721.md\n */\ncontract ERC721 is ERC165, IERC721 {\n\n  using SafeMath for uint256;\n  using Address for address;\n\n  // Equals to `bytes4(keccak256(\"onERC721Received(address,address,uint256,bytes)\"))`\n  // which can be also obtained as `IERC721Receiver(0).onERC721Received.selector`\n  bytes4 private constant _ERC721_RECEIVED = 0x150b7a02;\n\n  // Mapping from token ID to owner\n  mapping (uint256 => address) private _tokenOwner;\n\n  // Mapping from token ID to approved address\n  mapping (uint256 => address) private _tokenApprovals;\n\n  // Mapping from owner to number of owned token\n  mapping (address => uint256) private _ownedTokensCount;\n\n  // Mapping from owner to operator approvals\n  mapping (address => mapping (address => bool)) private _operatorApprovals;\n\n  bytes4 private constant _InterfaceId_ERC721 = 0x80ac58cd;\n  /*\n   * 0x80ac58cd ===\n   *   bytes4(keccak256('balanceOf(address)')) ^\n   *   bytes4(keccak256('ownerOf(uint256)')) ^\n   *   bytes4(keccak256('approve(address,uint256)')) ^\n   *   bytes4(keccak256('getApproved(uint256)')) ^\n   *   bytes4(keccak256('setApprovalForAll(address,bool)')) ^\n   *   bytes4(keccak256('isApprovedForAll(address,address)')) ^\n   *   bytes4(keccak256('transferFrom(address,address,uint256)')) ^\n   *   bytes4(keccak256('safeTransferFrom(address,address,uint256)')) ^\n   *   bytes4(keccak256('safeTransferFrom(address,address,uint256,bytes)'))\n   */\n\n  constructor()\n    public\n  {\n    // register the supported interfaces to conform to ERC721 via ERC165\n    _registerInterface(_InterfaceId_ERC721);\n  }\n\n  /**\n   * @dev Gets the balance of the specified address\n   * @param owner address to query the balance of\n   * @return uint256 representing the amount owned by the passed address\n   */\n  function balanceOf(address owner) public view returns (uint256) {\n    require(owner != address(0));\n    return _ownedTokensCount[owner];\n  }\n\n  /**\n   * @dev Gets the owner of the specified token ID\n   * @param tokenId uint256 ID of the token to query the owner of\n   * @return owner address currently marked as the owner of the given token ID\n   */\n  function ownerOf(uint256 tokenId) public view returns (address) {\n    address owner = _tokenOwner[tokenId];\n    require(owner != address(0));\n    return owner;\n  }\n\n  /**\n   * @dev Approves another address to transfer the given token ID\n   * The zero address indicates there is no approved address.\n   * There can only be one approved address per token at a given time.\n   * Can only be called by the token owner or an approved operator.\n   * @param to address to be approved for the given token ID\n   * @param tokenId uint256 ID of the token to be approved\n   */\n  function approve(address to, uint256 tokenId) public {\n    address owner = ownerOf(tokenId);\n    require(to != owner);\n    require(msg.sender == owner || isApprovedForAll(owner, msg.sender));\n\n    _tokenApprovals[tokenId] = to;\n    emit Approval(owner, to, tokenId);\n  }\n\n  /**\n   * @dev Gets the approved address for a token ID, or zero if no address set\n   * Reverts if the token ID does not exist.\n   * @param tokenId uint256 ID of the token to query the approval of\n   * @return address currently approved for the given token ID\n   */\n  function getApproved(uint256 tokenId) public view returns (address) {\n    require(_exists(tokenId));\n    return _tokenApprovals[tokenId];\n  }\n\n  /**\n   * @dev Sets or unsets the approval of a given operator\n   * An operator is allowed to transfer all tokens of the sender on their behalf\n   * @param to operator address to set the approval\n   * @param approved representing the status of the approval to be set\n   */\n  function setApprovalForAll(address to, bool approved) public {\n    require(to != msg.sender);\n    _operatorApprovals[msg.sender][to] = approved;\n    emit ApprovalForAll(msg.sender, to, approved);\n  }\n\n  /**\n   * @dev Tells whether an operator is approved by a given owner\n   * @param owner owner address which you want to query the approval of\n   * @param operator operator address which you want to query the approval of\n   * @return bool whether the given operator is approved by the given owner\n   */\n  function isApprovedForAll(\n    address owner,\n    address operator\n  )\n    public\n    view\n    returns (bool)\n  {\n    return _operatorApprovals[owner][operator];\n  }\n\n  /**\n   * @dev Transfers the ownership of a given token ID to another address\n   * Usage of this method is discouraged, use `safeTransferFrom` whenever possible\n   * Requires the msg sender to be the owner, approved, or operator\n   * @param from current owner of the token\n   * @param to address to receive the ownership of the given token ID\n   * @param tokenId uint256 ID of the token to be transferred\n  */\n  function transferFrom(\n    address from,\n    address to,\n    uint256 tokenId\n  )\n    public\n  {\n    require(_isApprovedOrOwner(msg.sender, tokenId));\n    require(to != address(0));\n\n    _clearApproval(from, tokenId);\n    _removeTokenFrom(from, tokenId);\n    _addTokenTo(to, tokenId);\n\n    emit Transfer(from, to, tokenId);\n  }\n\n  /**\n   * @dev Safely transfers the ownership of a given token ID to another address\n   * If the target address is a contract, it must implement `onERC721Received`,\n   * which is called upon a safe transfer, and return the magic value\n   * `bytes4(keccak256(\"onERC721Received(address,address,uint256,bytes)\"))`; otherwise,\n   * the transfer is reverted.\n   *\n   * Requires the msg sender to be the owner, approved, or operator\n   * @param from current owner of the token\n   * @param to address to receive the ownership of the given token ID\n   * @param tokenId uint256 ID of the token to be transferred\n  */\n  function safeTransferFrom(\n    address from,\n    address to,\n    uint256 tokenId\n  )\n    public\n  {\n    // solium-disable-next-line arg-overflow\n    safeTransferFrom(from, to, tokenId, \"\");\n  }\n\n  /**\n   * @dev Safely transfers the ownership of a given token ID to another address\n   * If the target address is a contract, it must implement `onERC721Received`,\n   * which is called upon a safe transfer, and return the magic value\n   * `bytes4(keccak256(\"onERC721Received(address,address,uint256,bytes)\"))`; otherwise,\n   * the transfer is reverted.\n   * Requires the msg sender to be the owner, approved, or operator\n   * @param from current owner of the token\n   * @param to address to receive the ownership of the given token ID\n   * @param tokenId uint256 ID of the token to be transferred\n   * @param _data bytes data to send along with a safe transfer check\n   */\n  function safeTransferFrom(\n    address from,\n    address to,\n    uint256 tokenId,\n    bytes _data\n  )\n    public\n  {\n    transferFrom(from, to, tokenId);\n    // solium-disable-next-line arg-overflow\n    require(_checkAndCallSafeTransfer(from, to, tokenId, _data));\n  }\n\n  /**\n   * @dev Returns whether the specified token exists\n   * @param tokenId uint256 ID of the token to query the existence of\n   * @return whether the token exists\n   */\n  function _exists(uint256 tokenId) internal view returns (bool) {\n    address owner = _tokenOwner[tokenId];\n    return owner != address(0);\n  }\n\n  /**\n   * @dev Returns whether the given spender can transfer a given token ID\n   * @param spender address of the spender to query\n   * @param tokenId uint256 ID of the token to be transferred\n   * @return bool whether the msg.sender is approved for the given token ID,\n   *  is an operator of the owner, or is the owner of the token\n   */\n  function _isApprovedOrOwner(\n    address spender,\n    uint256 tokenId\n  )\n    internal\n    view\n    returns (bool)\n  {\n    address owner = ownerOf(tokenId);\n    // Disable solium check because of\n    // https://github.com/duaraghav8/Solium/issues/175\n    // solium-disable-next-line operator-whitespace\n    return (\n      spender == owner ||\n      getApproved(tokenId) == spender ||\n      isApprovedForAll(owner, spender)\n    );\n  }\n\n  /**\n   * @dev Internal function to mint a new token\n   * Reverts if the given token ID already exists\n   * @param to The address that will own the minted token\n   * @param tokenId uint256 ID of the token to be minted by the msg.sender\n   */\n  function _mint(address to, uint256 tokenId) public {\n    require(to != address(0));\n    _addTokenTo(to, tokenId);\n    emit Transfer(address(0), to, tokenId);\n  }\n\n  /**\n   * @dev Internal function to burn a specific token\n   * Reverts if the token does not exist\n   * @param tokenId uint256 ID of the token being burned by the msg.sender\n   */\n  function _burn(address owner, uint256 tokenId) internal {\n    _clearApproval(owner, tokenId);\n    _removeTokenFrom(owner, tokenId);\n    emit Transfer(owner, address(0), tokenId);\n  }\n\n  /**\n   * @dev Internal function to clear current approval of a given token ID\n   * Reverts if the given address is not indeed the owner of the token\n   * @param owner owner of the token\n   * @param tokenId uint256 ID of the token to be transferred\n   */\n  function _clearApproval(address owner, uint256 tokenId) internal {\n    require(ownerOf(tokenId) == owner);\n    if (_tokenApprovals[tokenId] != address(0)) {\n      _tokenApprovals[tokenId] = address(0);\n    }\n  }\n\n  /**\n   * @dev Internal function to add a token ID to the list of a given address\n   * @param to address representing the new owner of the given token ID\n   * @param tokenId uint256 ID of the token to be added to the tokens list of the given address\n   */\n  function _addTokenTo(address to, uint256 tokenId) internal {\n    require(_tokenOwner[tokenId] == address(0));\n    _tokenOwner[tokenId] = to;\n    _ownedTokensCount[to] = _ownedTokensCount[to].add(1);\n  }\n\n  /**\n   * @dev Internal function to remove a token ID from the list of a given address\n   * @param from address representing the previous owner of the given token ID\n   * @param tokenId uint256 ID of the token to be removed from the tokens list of the given address\n   */\n  function _removeTokenFrom(address from, uint256 tokenId) internal {\n    require(ownerOf(tokenId) == from);\n    _ownedTokensCount[from] = _ownedTokensCount[from].sub(1);\n    _tokenOwner[tokenId] = address(0);\n  }\n\n  /**\n   * @dev Internal function to invoke `onERC721Received` on a target address\n   * The call is not executed if the target address is not a contract\n   * @param from address representing the previous owner of the given token ID\n   * @param to target address that will receive the tokens\n   * @param tokenId uint256 ID of the token to be transferred\n   * @param _data bytes optional data to send along with the call\n   * @return whether the call correctly returned the expected magic value\n   */\n  function _checkAndCallSafeTransfer(\n    address from,\n    address to,\n    uint256 tokenId,\n    bytes _data\n  )\n    internal\n    returns (bool)\n  {\n    if (!to.isContract()) {\n      return true;\n    }\n    bytes4 retval = IERC721Receiver(to).onERC721Received(\n      msg.sender, from, tokenId, _data);\n    return (retval == _ERC721_RECEIVED);\n  }\n}\n",
  "sourcePath": "openzeppelin-solidity/contracts/token/ERC721/ERC721.sol",
  "compiler": {
    "name": "solc",
    "version": "0.4.24+commit.e67f0147.Emscripten.clang"
  },
  "schemaVersion": "2.0.1",
  "updatedAt": "2018-12-22T11:28:28.707Z"
}